007511852BOND      JAMES      122 GOLDFINGER PERSONTOWNNY300225133759007          5137486007CLERK   R&D  312460001881085
018647329KENT      CLARK      20 KRYPTON ST  PERSONTOWNNY300295136482699          5137633871MANAGER BR&D  620450003870483
027602435KRAMDEN   ALICE      20 HONEYMOON STNOTOWN    NY100313127685967          3128590276ANALYST DMIS  421860001870280
045828304NORTH     JERRY      14 MARTINI ST  PERSONTOWNNY300045132665096          5137454965DESIGNERDR&D  482820011860575
048111007OLSEN     JIMMY      300 CUB ST     PERSONTOWNNY300175132573708          5132372302DESIGNERDPROD 532180002860783
053939677DREW      NANCY      42 NOSY ST     PERSONTOWNNY300064122356038          5134980553CLERK   CPROD 296580007870983
071918464STEED     JOHN       18 BOWLER ST   NOTOWN    NY100103125747168          3129468252DESIGNERCPROD 473650002860281
081956797WINE      MOSES      12 HIP ST      METROPOLISNY200171184030038          1184032736ANALYST BMIS  499280003880977
096283018CHAMBERS  DIANE      100 BAR ST     NOTOWN    NY100113168585109          3127781993MANAGER CPROD 670000001860382
097366399FAWLTY    BASIL      13 TOWER ST    NOTOWN    NY100073127732288          3168586385ANALYST APROD 420100002880185
098480250PETERSON  NORM       20 VERA ST     PERSONTOWNNY300114123316213          4123314217MANAGER APROD 732080003870676
107908321WHITE     PERRY      28 CHIEF ST    METROPOLISNY20011112604964811260464721127481735MANAGER CPROD 562730003860684
109094977HOLCROFT  NOEL       10 HUNTER ST   METROPOLISNY200121123889521          1126223982MANAGER BPROD 651520001880579
117308423CHARLES   NORA       10 PEEPER ST   PERSONTOWNNY300225139631621          5132721892DESIGNERAPROD 572400003880580
129275576RHODENBARRBERNIE    L22 CROOK ST    PERSONTOWNNY300275137483123          5134491925MANAGER CMIS  538070009870486
144936551MUDD      HARRY      1 STAR ST      PERSONTOWNNY300314124498858          4128591265CLERK   BPROD 249760011840182
154574105MAVERICK  BRETT      173 GAMBLE ST  NOTOWN    NY100313167453258          3168537123CLERK   BR&D  366310002870285
156533413FLYNN     FRANCIS   X8 HERB ST      NOTOWN    NY100173164698991          3127451490DESIGNERBPROD 485230001870379
164669628STEELE    REMINGTON R15 ALIAS ST    PERSONTOWNNY30013513230710051385730034126366900ANALYST BMIS  332410007870378
165245544HARDY     FENTON     30 SNOOP ST    PERSONTOWNNY300195134696338          5135749676MANAGER BR&D  780000004870177
175666707VADER     DARTH      13 SPACE ST    PERSONTOWNNY300324127485968          4128360320MANAGER DMIS  500010003801175
197340858LANE      LOIS      L28 SUPER ST    PERSONTOWNNY300324122728075          4127733625MANAGER BPROD 600100003860782
231081163STREET    DELLA      580 DELLA ST   METROPOLISNY200231182510223          1182362863CLERK   AR&D  273460008860583
243634844KEATON    ALEX      P34 ELITE ST    NOTOWN    NY100183168563006          3169196045CLERK   CMIS  213500005860684
250141546CANNON    FRANK      22 DIET ST     NOTOWN    NY100403123666323          3123723835MANAGER CMIS  632000001860180
265522806SPENSER   HAWK       33 BEACON ST   METROPOLISNY200161124984277          1122520567MANAGER DR&D  777760011870381
279319399HART      JENNIFER   10 POWERS ST   METROPOLISNY200141187457425          1185315667DESIGNERAPROD 574530003880776
297000324MASON     PERRY      12 ATTORNEY ST METROPOLISNY200171122824380          1128750020ANALYST CMIS  495340008850379
315551263HOLMES    SHERLOCK   221B BAKER ST  PERSONTOWNNY300215134344908          5137738267ANALYST DR&D  438910007840682
336345414OHARA     SCARLET    10 TARA LA     NOTOWN    NY100083163732006          3162090232MANAGER AR&D  798960003880979
337510916WOLFE     NERO       608 ORCHID ST  NOTOWN    NY100233128340306          3129195078CLERK   AR&D  273290001831078
351453116CARTER    NICK       400 MASTER ST  METROPOLISNY200161123451665          1182305018CLERK   DPROD 251980007860279
358928785KIRK      JAMES     T100 TREK ST    METROPOLISNY200281186461204          1189967241DESIGNERAPROD 501000004870185
360475339CHARLES   NICK       10 PEEPER ST   PERSONTOWNNY300225139631621          5132721892MANAGER BR&D  678900005871179
373603340SHAYNE    MIKE       21 SURF ST     NOTOWN    NY100263167696660          3168913926DESIGNERCPROD 487250003870684
382547177WEISER    MARION    N17 IMA ST      NOTOWN    NY10003312259313731285355443128312726MANAGER DR&D  849990005880178
406725718POIROT    HERCULE    22 INSPECTOR STMETROPOLISNY200191186220826          1187688259DESIGNERDMIS  538540001830380
412074985DIAMOND   RICHARD    36 TYLER ST    NOTOWN    NY100043168379150          3162567791CLERK   CR&D  234000004820979
412122593FIELDING  DAN        18 COURT ST    PERSONTOWNNY30028412449450041228267685132564539CLERK   DMIS  376450002860880
422375009HAVELOCK  MICHAEL    22 LUDLUM ST   NOTOWN    NY10029316384183831638615213163665332ANALYST DMIS  451440003870676
426743441NASHE     HAMILTON   23 OXFORD ST   NOTOWN    NY10038312453328431278254733127982174DESIGNERDR&D  472080003880285
431815949CARTWRIGHTBEN        5 PONDEROSA LA PERSONTOWNNY300034126225101          5132778316DESIGNERBMIS  488090001880976
434606028UNGER     FELIX      240 HONK ST    NOTOWN    NY100313122820482          3123724385CLERK   APROD 399990009831080
439348245MAGNUM    THOMAS     201 ALOHA ST   NOTOWN    NY100193166331827          3168332633DESIGNERDR&D  511820002870883
454768105MARTIN    ANGEL      2 ROCKFISH ST  PERSONTOWNNY300164123845600          4128914331DESIGNERDPROD 444400006840479
467287118NORTON    EDWARD     15 TRIXIE ST   METROPOLISNY200161184867454          1183841197CLERK   BMIS  289760005860379
498634876POPPINS   MARY       25 MAGIC ST    PERSONTOWNNY300354128585462          5133361957CLERK   DPROD 300000001870480
501620748BUTLER    RHETT      44 WIND ST     METROPOLISNY200121129413335          1126253207ANALYST BPROD 412780006870782
513351904GUNN      PETER      25 MANCINI ST  METROPOLISNY200071186297109          1129222706CLERK   DR&D  241260002860681
513789593DILLON    MATT       14 MARSHALL ST PERSONTOWNNY300154124676448          4127734323MANAGER BPROD 788770003870883
519251496MUNROE    JESSICA    42 AUTHOR ST   METROPOLISNY200031129536380          1126047506MANAGER AMIS  839270001880580
525042311CHAN      CHARLIE    10 MOTT ST     NOTOWN    NY100233122385240          3129416121CLERK   CMIS  388280008870580
525416210IRONSIDE  ROBERT    T10 EARL ST     PERSONTOWNNY300234127897801          4124392120DESIGNERAR&D  555500005850176
532859964HELM      MATT       13 HAMILTON ST PERSONTOWNNY300144126800304          4127480765CLERK   CR&D  378200003870582
547247690DIPALMA   LOUIE      30 SLEAZE ST   METROPOLISNY200031122513133          1182753446DESIGNERAMIS  437290007870986
560874087GOODWIN   ARCHIE     12 WOLF ST     PERSONTOWNNY300105136380415          4128212730ANALYST AMIS  332460003870485
575504962PERRIN    REGINALD   100 GROT ST    NOTOWN    NY100013122253437          3129461974CLERK   BR&D  300020003840179
583532918BERGERAC  CYRANO    D1 PARIS ST     PERSONTOWNNY300055137435589          5132553233ANALYST BMIS  489990003810576
584836738CARTWRIGHTHOSS       5 PONDEROSA LA PERSONTOWNNY300034126225101          5132778316ANALYST AR&D  400080002880282
594184602MCMILLAN  SALLY      120 HUDSON ST  NOTOWN    NY100163129633065          3166429088ANALYST CR&D  472510005870879
602407060TEMPLAR   SIMON      96 SAINT ST    PERSONTOWNNY30007412531457941253125805136257977DESIGNERCMIS  598060003880279
606984917CLOUSSEAU INSPECTOR  21 MEENKY ST   METROPOLISNY200141183385183          1183846843ANALYST DMIS  399800003860678
623541383HOLMES    MYCROFT    18 CLUB ST     NOTOWN    NY100173129227385          3167780875DESIGNERAMIS  562490003880883
629195747FLETCHER  IRWIN     M2 CHASE ST     METROPOLISNY200211123737266          1188278452MANAGER CR&D  630870003870878
634950378TANNER    EVAN       300 SLEEPER ST NOTOWN    NY100133163981525          3162414738MANAGER DPROD 732960002860183
671920794RANDALL   JOSH       56 BOUNTY ST   METROPOLISNY200171126475759          1129982723ANALYST AR&D  352780009820577
676865001ROCKFORD  JAMES     T33 TRAILER ST  METROPOLISNY200291183722142          1187832068DESIGNERBR&D  530800005830280
678466125REAGER    ALEX      J74 ADVISOR ST  NOTOWN    NY100383126333178          3128366761CLERK   DPROD 209930008840583
686944932MARLOWE   PHILIP     12 CHANDLER ST METROPOLISNY20014118854940111885494051187631562CLERK   BMIS  244630002860580
739096328SMALL     DAVID     R777 CLERGY ST  NOTOWN    NY100033168586972          3168712321ANALYST APROD 398980009830480
740350623SCUDDER   MATTHEW    12 ALCOHOL ST  METROPOLISNY200031187682789          1128363377MANAGER DR&D  532760003860183
742201761SPADE     SAM       S179 FALCON ST  PERSONTOWNNY300114127747951          4127712472CLERK   DMIS  249360001810879
744146916HARRISON  CHIP       36 BLOCK ST    METROPOLISNY200141124620061          1127824088ANALYST DPROD 370370001870281
750855555WALKER    AMOS       165 DETROIT ST NOTOWN    NY100153163874093          3167742466ANALYST BPROD 372190005850779
751645142SING      HOP        153 COOK ST    PERSONTOWNNY300054124358705          4123772930ANALYST BMIS  374560008860382
761736932NORTH     PAM        14 MARTINI ST  PERSONTOWNNY300045132665096          5137454965ANALYST CPROD 482760005880383
764319959PEEL      EMMA       111 AVENGER ST METROPOLISNY200151124973476          1122844022ANALYST CMIS  500000005880383
766688163QUIXOTE   DON        111 WINDMILL STNOTOWN    NY10015316735264331678273243126493467ANALYST CR&D  433330002840181
782667746ED        MISTER     10 OAT ST      METROPOLISNY200251189658222          1124633260MANAGER BMIS  500050003850680
783563314BURKE     AMOS       114 BARRY ST   NOTOWN    NY100243163763580          3169191504CLERK   AMIS  246430005860174
796681101MCGEE     TRAVIS     20 FLUSH ST    METROPOLISNY200231183895432          1183831987DESIGNERDMIS  556400002860682
812815428HAMMER    MIKE       1 SPILLANE ST  NOTOWN    NY10013312953729731295372983124966165CLERK   CMIS  272460004860676
815520270WATSON    JOHN      H93 MEDICAL ST  PERSONTOWNNY300114124558010          4125962693CLERK   AMIS  342650003860978
847258657MALONE    SAM        100 CHEERS ST  PERSONTOWNNY300085138366666          5134998860ANALYST CPROD 372130004860279
853600995BOURNE    JASON      418 AMNESIA ST METROPOLISNY200451122590381          1128915116DESIGNERCMIS  482670001871178
859673715ARCHER    LEW        101 ROSS ST    NOTOWN    NY100313126436808          3122826590ANALYST AR&D  418760001860980
875490775VANCE     PHILO      111 NEW YORK STMETROPOLISNY200291186251426          1186253991DESIGNERCR&D  471990003820577
885034483SKYWALKER LUKE       500 FORCE ST   METROPOLISNY200151123761000          1128573213CLERK   AR&D  272410003870580
892369626BRAGG     PETER      340 MODEST ST  PERSONTOWNNY30025513499519551349951965139962302MANAGER DR&D  528000002870381
897176599JONES     BARNABY    4 HILLBILLY ST METROPOLISNY200151129347516          1123427953ANALYST DPROD 412000001850280
900619229HOPE      MATTHEW    246 ATTORNEY STMETROPOLISNY20013118875520011876870081184991983CLERK   CPROD 373230003880681
909295632IGNATOWSKIJIM        13 DREAM ST    NOTOWN    NY100383122575228          3129349059MANAGER BMIS  510000005800877
940476548DRAKE     JOHN       24 AGENT ST    NOTOWN    NY100053125962806          3162827538ANALYST DR&D  323160007870784
949326445REDDY     JASON      17 SECURITY ST NOTOWN    NY10013312266570631226657073127460709ANALYST DMIS  499940003860283
961008182MARPLE    JANE      A14 PARLOUR ST  NOTOWN    NY100093129531735          3122887553MANAGER AR&D  700000003880781
966456476MCCOY     LEONARD    2 ENTERPRISE STPERSONTOWNNY300265136464670          5139466005MANAGER APROD 733850001840380
986141483CHAMBERS  PAT        14 HAMMER ST   METROPOLISNY200241123757148          1123462108ANALYST DPROD 420800011860983
989000740TORTELLI  CARLA      35 ZENA ST     METROPOLISNY200171128912212          1128914187ANALYST BR&D  319780008860981
993610980MADISON   OSCAR      22 SLOB ST     METROPOLISNY200131123390296          1124552585DESIGNERAMIS  430510003880681
999410773KRAMDEN   RALPH      20 HONEYMOON STNOTOWN    NY100313127685967          3128590276CLERK   CR&D  333200001860481
